{
  "contractName": "CourseMarketplace",
  "abi": [
    {
      "inputs": [],
      "stateMutability": "nonpayable",
      "type": "constructor"
    },
    {
      "inputs": [],
      "name": "CourseHasOwner",
      "type": "error"
    },
    {
      "inputs": [],
      "name": "OnlyOwner",
      "type": "error"
    },
    {
      "inputs": [
        {
          "internalType": "bytes16",
          "name": "_courseId",
          "type": "bytes16"
        },
        {
          "internalType": "bytes32",
          "name": "_proof",
          "type": "bytes32"
        }
      ],
      "name": "purchaseCourse",
      "outputs": [],
      "stateMutability": "payable",
      "type": "function",
      "payable": true
    },
    {
      "inputs": [
        {
          "internalType": "address",
          "name": "newOwner",
          "type": "address"
        }
      ],
      "name": "transferOwnership",
      "outputs": [],
      "stateMutability": "nonpayable",
      "type": "function"
    },
    {
      "inputs": [],
      "name": "getCourseCount",
      "outputs": [
        {
          "internalType": "uint256",
          "name": "",
          "type": "uint256"
        }
      ],
      "stateMutability": "view",
      "type": "function",
      "constant": true
    },
    {
      "inputs": [
        {
          "internalType": "uint256",
          "name": "_index",
          "type": "uint256"
        }
      ],
      "name": "getCourseHashAtIndex",
      "outputs": [
        {
          "internalType": "bytes32",
          "name": "",
          "type": "bytes32"
        }
      ],
      "stateMutability": "view",
      "type": "function",
      "constant": true
    },
    {
      "inputs": [
        {
          "internalType": "bytes32",
          "name": "courseHash",
          "type": "bytes32"
        }
      ],
      "name": "getCourseByHash",
      "outputs": [
        {
          "components": [
            {
              "internalType": "uint256",
              "name": "id",
              "type": "uint256"
            },
            {
              "internalType": "uint256",
              "name": "price",
              "type": "uint256"
            },
            {
              "internalType": "bytes32",
              "name": "proof",
              "type": "bytes32"
            },
            {
              "internalType": "address",
              "name": "owner",
              "type": "address"
            },
            {
              "internalType": "enum CourseMarketplace.State",
              "name": "state",
              "type": "uint8"
            }
          ],
          "internalType": "struct CourseMarketplace.Course",
          "name": "",
          "type": "tuple"
        }
      ],
      "stateMutability": "view",
      "type": "function",
      "constant": true
    },
    {
      "inputs": [],
      "name": "getContractOwner",
      "outputs": [
        {
          "internalType": "address",
          "name": "",
          "type": "address"
        }
      ],
      "stateMutability": "view",
      "type": "function",
      "constant": true
    }
  ],
  "bytecode": "0x608060405234801561001057600080fd5b506100203361002560201b60201c565b610069565b80600360006101000a81548173ffffffffffffffffffffffffffffffffffffffff021916908373ffffffffffffffffffffffffffffffffffffffff16021790555050565b610c04806100786000396000f3fe6080604052600436106100555760003560e01c8063442890d51461005a57806362e4e6ac146100855780636d11290b146100c257806396cfda06146100ff578063d76821cb1461012a578063f2fde38b14610146575b600080fd5b34801561006657600080fd5b5061006f61016f565b60405161007c91906108f9565b60405180910390f35b34801561009157600080fd5b506100ac60048036038101906100a79190610759565b610199565b6040516100b9919061094f565b60405180910390f35b3480156100ce57600080fd5b506100e960048036038101906100e49190610782565b6102c0565b6040516100f69190610914565b60405180910390f35b34801561010b57600080fd5b506101146102dd565b604051610121919061096a565b60405180910390f35b610144600480360381019061013f919061071d565b6102e7565b005b34801561015257600080fd5b5061016d600480360381019061016891906106f4565b6104d3565b005b6000600360009054906101000a900473ffffffffffffffffffffffffffffffffffffffff16905090565b6101a1610620565b6000808381526020019081526020016000206040518060a00160405290816000820154815260200160018201548152602001600282015481526020016003820160009054906101000a900473ffffffffffffffffffffffffffffffffffffffff1673ffffffffffffffffffffffffffffffffffffffff1673ffffffffffffffffffffffffffffffffffffffff1681526020016003820160149054906101000a900460ff16600281111561027d577f4e487b7100000000000000000000000000000000000000000000000000000000600052602160045260246000fd5b60028111156102b5577f4e487b7100000000000000000000000000000000000000000000000000000000600052602160045260246000fd5b815250509050919050565b600060016000838152602001908152602001600020549050919050565b6000600254905090565b600082336040516020016102fc9291906108cd565b60405160208183030381529060405280519060200120905061031d8161056f565b15610354576040517fb0fc2d9700000000000000000000000000000000000000000000000000000000815260040160405180910390fd5b60006002600081548092919061036990610a2d565b9190505590508160016000838152602001908152602001600020819055506040518060a001604052808281526020013481526020018481526020013373ffffffffffffffffffffffffffffffffffffffff168152602001600060028111156103fa577f4e487b7100000000000000000000000000000000000000000000000000000000600052602160045260246000fd5b81525060008084815260200190815260200160002060008201518160000155602082015181600101556040820151816002015560608201518160030160006101000a81548173ffffffffffffffffffffffffffffffffffffffff021916908373ffffffffffffffffffffffffffffffffffffffff16021790555060808201518160030160146101000a81548160ff021916908360028111156104c5577f4e487b7100000000000000000000000000000000000000000000000000000000600052602160045260246000fd5b021790555090505050505050565b600360009054906101000a900473ffffffffffffffffffffffffffffffffffffffff1673ffffffffffffffffffffffffffffffffffffffff163373ffffffffffffffffffffffffffffffffffffffff1614610563576040517f08c379a000000000000000000000000000000000000000000000000000000000815260040161055a9061092f565b60405180910390fd5b61056c816105dc565b50565b60003373ffffffffffffffffffffffffffffffffffffffff1660008084815260200190815260200160002060030160009054906101000a900473ffffffffffffffffffffffffffffffffffffffff1673ffffffffffffffffffffffffffffffffffffffff16149050919050565b80600360006101000a81548173ffffffffffffffffffffffffffffffffffffffff021916908373ffffffffffffffffffffffffffffffffffffffff16021790555050565b6040518060a00160405280600081526020016000815260200160008019168152602001600073ffffffffffffffffffffffffffffffffffffffff1681526020016000600281111561069a577f4e487b7100000000000000000000000000000000000000000000000000000000600052602160045260246000fd5b81525090565b6000813590506106af81610b72565b92915050565b6000813590506106c481610b89565b92915050565b6000813590506106d981610ba0565b92915050565b6000813590506106ee81610bb7565b92915050565b60006020828403121561070657600080fd5b6000610714848285016106a0565b91505092915050565b6000806040838503121561073057600080fd5b600061073e858286016106b5565b925050602061074f858286016106ca565b9150509250929050565b60006020828403121561076b57600080fd5b6000610779848285016106ca565b91505092915050565b60006020828403121561079457600080fd5b60006107a2848285016106df565b91505092915050565b6107b481610996565b82525050565b6107c381610996565b82525050565b6107da6107d582610996565b610a76565b82525050565b6107f16107ec826109a8565b610a88565b82525050565b610800816109d4565b82525050565b61080f816109d4565b82525050565b61081e81610a1b565b82525050565b6000610831602183610985565b915061083c82610b0f565b604082019050919050565b60a08201600082015161085d60008501826108af565b50602082015161087060208501826108af565b50604082015161088360408501826107f7565b50606082015161089660608501826107ab565b5060808201516108a96080850182610815565b50505050565b6108b881610a11565b82525050565b6108c781610a11565b82525050565b60006108d982856107e0565b6010820191506108e982846107c9565b6014820191508190509392505050565b600060208201905061090e60008301846107ba565b92915050565b60006020820190506109296000830184610806565b92915050565b6000602082019050818103600083015261094881610824565b9050919050565b600060a0820190506109646000830184610847565b92915050565b600060208201905061097f60008301846108be565b92915050565b600082825260208201905092915050565b60006109a1826109f1565b9050919050565b60007fffffffffffffffffffffffffffffffff0000000000000000000000000000000082169050919050565b6000819050919050565b60008190506109ec82610b5e565b919050565b600073ffffffffffffffffffffffffffffffffffffffff82169050919050565b6000819050919050565b6000610a26826109de565b9050919050565b6000610a3882610a11565b91507fffffffffffffffffffffffffffffffffffffffffffffffffffffffffffffffff821415610a6b57610a6a610aa4565b5b600182019050919050565b6000610a8182610a92565b9050919050565b6000819050919050565b6000610a9d82610b02565b9050919050565b7f4e487b7100000000000000000000000000000000000000000000000000000000600052601160045260246000fd5b7f4e487b7100000000000000000000000000000000000000000000000000000000600052602160045260246000fd5b60008160601b9050919050565b7f4f6e6c79206f776e65722063616e207472616e73666572206f776e657273686960008201527f7000000000000000000000000000000000000000000000000000000000000000602082015250565b60038110610b6f57610b6e610ad3565b5b50565b610b7b81610996565b8114610b8657600080fd5b50565b610b92816109a8565b8114610b9d57600080fd5b50565b610ba9816109d4565b8114610bb457600080fd5b50565b610bc081610a11565b8114610bcb57600080fd5b5056fea2646970667358221220b5b80f00e50ec52f0ecd90f3333dacd2a7f9558de7a457431761cedd61150aab64736f6c63430008040033",
  "immutableReferences": {},
  "source": "// SPDX-License-Identifier: MIT\r\npragma solidity >=0.4.22 <0.9.0;\r\n\r\ncontract CourseMarketplace {\r\n    enum State {\r\n        Purchased,\r\n        Activated,\r\n        Deactivated\r\n    }\r\n\r\n    // mapping of courseHash ot course data\r\n    mapping(bytes32 => Course) private ownedCourses;\r\n\r\n    // mapping courseId to courseHash\r\n    mapping(uint256 => bytes32) private ownedCourseHash;\r\n\r\n    // number of all courses+id of the course\r\n    uint256 private totalOwnedCourses;\r\n\r\n    address payable private owner;\r\n\r\n    constructor() {\r\n        setContractOwner(msg.sender);\r\n    }\r\n\r\n    /// Course already has an owner\r\n    error CourseHasOwner();\r\n\r\n    /// Only owner can call this function\r\n    error OnlyOwner();\r\n\r\n    modifier onlyOwner() {\r\n        if (msg.sender != getContractOwner()) {\r\n            revert OnlyOwner();\r\n        }\r\n        _;\r\n    }\r\n\r\n    struct Course {\r\n        uint256 id; //32\r\n        uint256 price; //32\r\n        bytes32 proof; //32\r\n        address owner; //20\r\n        State state; //1\r\n    }\r\n\r\n    function purchaseCourse(bytes16 _courseId, bytes32 _proof)\r\n        external\r\n        payable\r\n    {\r\n        bytes32 courseHash = keccak256(abi.encodePacked(_courseId, msg.sender));\r\n\r\n        if (hasCourseOwnerShip(courseHash)) {\r\n            revert CourseHasOwner();\r\n        }\r\n\r\n        uint256 id = totalOwnedCourses++;\r\n        ownedCourseHash[id] = courseHash;\r\n\r\n        ownedCourses[courseHash] = Course({\r\n            id: id,\r\n            price: msg.value,\r\n            proof: _proof,\r\n            owner: msg.sender,\r\n            state: State.Purchased\r\n        });\r\n    }\r\n\r\n    function transferOwnership(address newOwner) external {\r\n        require(msg.sender == owner, \"Only owner can transfer ownership\");\r\n        setContractOwner(newOwner);\r\n    }\r\n\r\n    function getCourseCount() external view returns (uint256) {\r\n        return totalOwnedCourses;\r\n    }\r\n\r\n    function getCourseHashAtIndex(uint256 _index)\r\n        external\r\n        view\r\n        returns (bytes32)\r\n    {\r\n        return ownedCourseHash[_index];\r\n    }\r\n\r\n    function getCourseByHash(bytes32 courseHash)\r\n        external\r\n        view\r\n        returns (Course memory)\r\n    {\r\n        return ownedCourses[courseHash];\r\n    }\r\n\r\n    function getContractOwner() public view returns (address) {\r\n        return owner;\r\n    }\r\n\r\n    function setContractOwner(address newOwner) private {\r\n        owner = payable(newOwner);\r\n    }\r\n\r\n    function hasCourseOwnerShip(bytes32 courseHash)\r\n        private\r\n        view\r\n        returns (bool)\r\n    {\r\n        return ownedCourses[courseHash].owner == msg.sender;\r\n    }\r\n}\r\n",
  "sourcePath": "C:\\Users\\house\\OneDrive\\Documents\\Projects\\Web\\Personal\\Blockchain\\eth-marketplace\\contracts\\CourseMarketplace.sol",
  "compiler": {
    "name": "solc",
    "version": "0.8.4+commit.c7e474f2.Emscripten.clang"
  },
  "schemaVersion": "3.4.4",
  "updatedAt": "2022-10-16T07:37:36.192Z",
  "networkType": "ethereum",
  "devdoc": {
    "kind": "dev",
    "methods": {},
    "version": 1
  },
  "userdoc": {
    "errors": {
      "CourseHasOwner()": [
        {
          "notice": "Course already has an owner"
        }
      ],
      "OnlyOwner()": [
        {
          "notice": "Only owner can call this function"
        }
      ]
    },
    "kind": "user",
    "methods": {},
    "version": 1
  }
}